{
  "_format": "hh-sol-artifact-1",
  "contractName": "ERC721Clonable",
  "sourceName": "contracts/ERC721Clonable.sol",
  "abi": [
    {
      "inputs": [
        {
          "internalType": "address",
          "name": "initialOwner",
          "type": "address"
        },
        {
          "internalType": "string",
          "name": "_name",
          "type": "string"
        },
        {
          "internalType": "string",
          "name": "_symbol",
          "type": "string"
        },
        {
          "internalType": "uint256",
          "name": "_maxSupply",
          "type": "uint256"
        }
      ],
      "stateMutability": "nonpayable",
      "type": "constructor"
    },
    {
      "inputs": [],
      "name": "ERC721EnumerableForbiddenBatchMint",
      "type": "error"
    },
    {
      "inputs": [
        {
          "internalType": "address",
          "name": "sender",
          "type": "address"
        },
        {
          "internalType": "uint256",
          "name": "tokenId",
          "type": "uint256"
        },
        {
          "internalType": "address",
          "name": "owner",
          "type": "address"
        }
      ],
      "name": "ERC721IncorrectOwner",
      "type": "error"
    },
    {
      "inputs": [
        {
          "internalType": "address",
          "name": "operator",
          "type": "address"
        },
        {
          "internalType": "uint256",
          "name": "tokenId",
          "type": "uint256"
        }
      ],
      "name": "ERC721InsufficientApproval",
      "type": "error"
    },
    {
      "inputs": [
        {
          "internalType": "address",
          "name": "approver",
          "type": "address"
        }
      ],
      "name": "ERC721InvalidApprover",
      "type": "error"
    },
    {
      "inputs": [
        {
          "internalType": "address",
          "name": "operator",
          "type": "address"
        }
      ],
      "name": "ERC721InvalidOperator",
      "type": "error"
    },
    {
      "inputs": [
        {
          "internalType": "address",
          "name": "owner",
          "type": "address"
        }
      ],
      "name": "ERC721InvalidOwner",
      "type": "error"
    },
    {
      "inputs": [
        {
          "internalType": "address",
          "name": "receiver",
          "type": "address"
        }
      ],
      "name": "ERC721InvalidReceiver",
      "type": "error"
    },
    {
      "inputs": [
        {
          "internalType": "address",
          "name": "sender",
          "type": "address"
        }
      ],
      "name": "ERC721InvalidSender",
      "type": "error"
    },
    {
      "inputs": [
        {
          "internalType": "uint256",
          "name": "tokenId",
          "type": "uint256"
        }
      ],
      "name": "ERC721NonexistentToken",
      "type": "error"
    },
    {
      "inputs": [
        {
          "internalType": "address",
          "name": "owner",
          "type": "address"
        },
        {
          "internalType": "uint256",
          "name": "index",
          "type": "uint256"
        }
      ],
      "name": "ERC721OutOfBoundsIndex",
      "type": "error"
    },
    {
      "inputs": [],
      "name": "EnforcedPause",
      "type": "error"
    },
    {
      "inputs": [],
      "name": "ExpectedPause",
      "type": "error"
    },
    {
      "inputs": [
        {
          "internalType": "address",
          "name": "owner",
          "type": "address"
        }
      ],
      "name": "OwnableInvalidOwner",
      "type": "error"
    },
    {
      "inputs": [
        {
          "internalType": "address",
          "name": "account",
          "type": "address"
        }
      ],
      "name": "OwnableUnauthorizedAccount",
      "type": "error"
    },
    {
      "anonymous": false,
      "inputs": [
        {
          "indexed": true,
          "internalType": "address",
          "name": "owner",
          "type": "address"
        },
        {
          "indexed": true,
          "internalType": "address",
          "name": "approved",
          "type": "address"
        },
        {
          "indexed": true,
          "internalType": "uint256",
          "name": "tokenId",
          "type": "uint256"
        }
      ],
      "name": "Approval",
      "type": "event"
    },
    {
      "anonymous": false,
      "inputs": [
        {
          "indexed": true,
          "internalType": "address",
          "name": "owner",
          "type": "address"
        },
        {
          "indexed": true,
          "internalType": "address",
          "name": "operator",
          "type": "address"
        },
        {
          "indexed": false,
          "internalType": "bool",
          "name": "approved",
          "type": "bool"
        }
      ],
      "name": "ApprovalForAll",
      "type": "event"
    },
    {
      "anonymous": false,
      "inputs": [
        {
          "indexed": false,
          "internalType": "uint256",
          "name": "_fromTokenId",
          "type": "uint256"
        },
        {
          "indexed": false,
          "internalType": "uint256",
          "name": "_toTokenId",
          "type": "uint256"
        }
      ],
      "name": "BatchMetadataUpdate",
      "type": "event"
    },
    {
      "anonymous": false,
      "inputs": [
        {
          "indexed": false,
          "internalType": "uint256",
          "name": "_tokenId",
          "type": "uint256"
        }
      ],
      "name": "MetadataUpdate",
      "type": "event"
    },
    {
      "anonymous": false,
      "inputs": [
        {
          "indexed": true,
          "internalType": "address",
          "name": "previousOwner",
          "type": "address"
        },
        {
          "indexed": true,
          "internalType": "address",
          "name": "newOwner",
          "type": "address"
        }
      ],
      "name": "OwnershipTransferred",
      "type": "event"
    },
    {
      "anonymous": false,
      "inputs": [
        {
          "indexed": false,
          "internalType": "address",
          "name": "account",
          "type": "address"
        }
      ],
      "name": "Paused",
      "type": "event"
    },
    {
      "anonymous": false,
      "inputs": [
        {
          "indexed": true,
          "internalType": "address",
          "name": "from",
          "type": "address"
        },
        {
          "indexed": true,
          "internalType": "address",
          "name": "to",
          "type": "address"
        },
        {
          "indexed": true,
          "internalType": "uint256",
          "name": "tokenId",
          "type": "uint256"
        }
      ],
      "name": "Transfer",
      "type": "event"
    },
    {
      "anonymous": false,
      "inputs": [
        {
          "indexed": false,
          "internalType": "address",
          "name": "account",
          "type": "address"
        }
      ],
      "name": "Unpaused",
      "type": "event"
    },
    {
      "inputs": [
        {
          "internalType": "address",
          "name": "to",
          "type": "address"
        },
        {
          "internalType": "uint256",
          "name": "tokenId",
          "type": "uint256"
        }
      ],
      "name": "approve",
      "outputs": [],
      "stateMutability": "nonpayable",
      "type": "function"
    },
    {
      "inputs": [
        {
          "internalType": "address",
          "name": "owner",
          "type": "address"
        }
      ],
      "name": "balanceOf",
      "outputs": [
        {
          "internalType": "uint256",
          "name": "",
          "type": "uint256"
        }
      ],
      "stateMutability": "view",
      "type": "function"
    },
    {
      "inputs": [
        {
          "internalType": "uint256",
          "name": "tokenId",
          "type": "uint256"
        }
      ],
      "name": "burn",
      "outputs": [],
      "stateMutability": "nonpayable",
      "type": "function"
    },
    {
      "inputs": [
        {
          "internalType": "uint256",
          "name": "tokenId",
          "type": "uint256"
        }
      ],
      "name": "getApproved",
      "outputs": [
        {
          "internalType": "address",
          "name": "",
          "type": "address"
        }
      ],
      "stateMutability": "view",
      "type": "function"
    },
    {
      "inputs": [
        {
          "internalType": "address",
          "name": "owner",
          "type": "address"
        },
        {
          "internalType": "address",
          "name": "operator",
          "type": "address"
        }
      ],
      "name": "isApprovedForAll",
      "outputs": [
        {
          "internalType": "bool",
          "name": "",
          "type": "bool"
        }
      ],
      "stateMutability": "view",
      "type": "function"
    },
    {
      "inputs": [],
      "name": "maxSupply",
      "outputs": [
        {
          "internalType": "uint256",
          "name": "",
          "type": "uint256"
        }
      ],
      "stateMutability": "view",
      "type": "function"
    },
    {
      "inputs": [],
      "name": "name",
      "outputs": [
        {
          "internalType": "string",
          "name": "",
          "type": "string"
        }
      ],
      "stateMutability": "view",
      "type": "function"
    },
    {
      "inputs": [],
      "name": "owner",
      "outputs": [
        {
          "internalType": "address",
          "name": "",
          "type": "address"
        }
      ],
      "stateMutability": "view",
      "type": "function"
    },
    {
      "inputs": [
        {
          "internalType": "uint256",
          "name": "tokenId",
          "type": "uint256"
        }
      ],
      "name": "ownerOf",
      "outputs": [
        {
          "internalType": "address",
          "name": "",
          "type": "address"
        }
      ],
      "stateMutability": "view",
      "type": "function"
    },
    {
      "inputs": [],
      "name": "pause",
      "outputs": [],
      "stateMutability": "nonpayable",
      "type": "function"
    },
    {
      "inputs": [],
      "name": "paused",
      "outputs": [
        {
          "internalType": "bool",
          "name": "",
          "type": "bool"
        }
      ],
      "stateMutability": "view",
      "type": "function"
    },
    {
      "inputs": [],
      "name": "renounceOwnership",
      "outputs": [],
      "stateMutability": "nonpayable",
      "type": "function"
    },
    {
      "inputs": [
        {
          "internalType": "address",
          "name": "to",
          "type": "address"
        },
        {
          "internalType": "string",
          "name": "uri",
          "type": "string"
        }
      ],
      "name": "safeMint",
      "outputs": [],
      "stateMutability": "nonpayable",
      "type": "function"
    },
    {
      "inputs": [
        {
          "internalType": "address",
          "name": "from",
          "type": "address"
        },
        {
          "internalType": "address",
          "name": "to",
          "type": "address"
        },
        {
          "internalType": "uint256",
          "name": "tokenId",
          "type": "uint256"
        }
      ],
      "name": "safeTransferFrom",
      "outputs": [],
      "stateMutability": "nonpayable",
      "type": "function"
    },
    {
      "inputs": [
        {
          "internalType": "address",
          "name": "from",
          "type": "address"
        },
        {
          "internalType": "address",
          "name": "to",
          "type": "address"
        },
        {
          "internalType": "uint256",
          "name": "tokenId",
          "type": "uint256"
        },
        {
          "internalType": "bytes",
          "name": "data",
          "type": "bytes"
        }
      ],
      "name": "safeTransferFrom",
      "outputs": [],
      "stateMutability": "nonpayable",
      "type": "function"
    },
    {
      "inputs": [
        {
          "internalType": "address",
          "name": "operator",
          "type": "address"
        },
        {
          "internalType": "bool",
          "name": "approved",
          "type": "bool"
        }
      ],
      "name": "setApprovalForAll",
      "outputs": [],
      "stateMutability": "nonpayable",
      "type": "function"
    },
    {
      "inputs": [
        {
          "internalType": "bytes4",
          "name": "interfaceId",
          "type": "bytes4"
        }
      ],
      "name": "supportsInterface",
      "outputs": [
        {
          "internalType": "bool",
          "name": "",
          "type": "bool"
        }
      ],
      "stateMutability": "view",
      "type": "function"
    },
    {
      "inputs": [],
      "name": "symbol",
      "outputs": [
        {
          "internalType": "string",
          "name": "",
          "type": "string"
        }
      ],
      "stateMutability": "view",
      "type": "function"
    },
    {
      "inputs": [
        {
          "internalType": "uint256",
          "name": "index",
          "type": "uint256"
        }
      ],
      "name": "tokenByIndex",
      "outputs": [
        {
          "internalType": "uint256",
          "name": "",
          "type": "uint256"
        }
      ],
      "stateMutability": "view",
      "type": "function"
    },
    {
      "inputs": [
        {
          "internalType": "address",
          "name": "owner",
          "type": "address"
        },
        {
          "internalType": "uint256",
          "name": "index",
          "type": "uint256"
        }
      ],
      "name": "tokenOfOwnerByIndex",
      "outputs": [
        {
          "internalType": "uint256",
          "name": "",
          "type": "uint256"
        }
      ],
      "stateMutability": "view",
      "type": "function"
    },
    {
      "inputs": [
        {
          "internalType": "uint256",
          "name": "tokenId",
          "type": "uint256"
        }
      ],
      "name": "tokenURI",
      "outputs": [
        {
          "internalType": "string",
          "name": "",
          "type": "string"
        }
      ],
      "stateMutability": "view",
      "type": "function"
    },
    {
      "inputs": [],
      "name": "totalSupply",
      "outputs": [
        {
          "internalType": "uint256",
          "name": "",
          "type": "uint256"
        }
      ],
      "stateMutability": "view",
      "type": "function"
    },
    {
      "inputs": [
        {
          "internalType": "address",
          "name": "from",
          "type": "address"
        },
        {
          "internalType": "address",
          "name": "to",
          "type": "address"
        },
        {
          "internalType": "uint256",
          "name": "tokenId",
          "type": "uint256"
        }
      ],
      "name": "transferFrom",
      "outputs": [],
      "stateMutability": "nonpayable",
      "type": "function"
    },
    {
      "inputs": [
        {
          "internalType": "address",
          "name": "newOwner",
          "type": "address"
        }
      ],
      "name": "transferOwnership",
      "outputs": [],
      "stateMutability": "nonpayable",
      "type": "function"
    },
    {
      "inputs": [],
      "name": "unpause",
      "outputs": [],
      "stateMutability": "nonpayable",
      "type": "function"
    },
    {
      "inputs": [
        {
          "internalType": "uint256",
          "name": "_newMaxSupply",
          "type": "uint256"
        }
      ],
      "name": "updateMaxSupply",
      "outputs": [],
      "stateMutability": "nonpayable",
      "type": "function"
    }
  ],
  "bytecode": "0x60806040523480156200001157600080fd5b50604051620039b6380380620039b6833981810160405281019062000037919062000443565b83838381600090816200004b919062000734565b5080600190816200005d919062000734565b5050506000600b60006101000a81548160ff021916908315150217905550600073ffffffffffffffffffffffffffffffffffffffff168173ffffffffffffffffffffffffffffffffffffffff1603620000f05760006040517f1e4fbdf7000000000000000000000000000000000000000000000000000000008152600401620000e791906200082c565b60405180910390fd5b62000101816200014a60201b60201c565b506000810362000138577fffffffffffffffffffffffffffffffffffffffffffffffffffffffffffffffff600d8190555062000140565b80600d819055505b5050505062000849565b6000600b60019054906101000a900473ffffffffffffffffffffffffffffffffffffffff16905081600b60016101000a81548173ffffffffffffffffffffffffffffffffffffffff021916908373ffffffffffffffffffffffffffffffffffffffff1602179055508173ffffffffffffffffffffffffffffffffffffffff168173ffffffffffffffffffffffffffffffffffffffff167f8be0079c531659141344cd1fd0a4f28419497f9722a3daafe3b4186f6b6457e060405160405180910390a35050565b6000604051905090565b600080fd5b600080fd5b600073ffffffffffffffffffffffffffffffffffffffff82169050919050565b6000620002518262000224565b9050919050565b620002638162000244565b81146200026f57600080fd5b50565b600081519050620002838162000258565b92915050565b600080fd5b600080fd5b6000601f19601f8301169050919050565b7f4e487b7100000000000000000000000000000000000000000000000000000000600052604160045260246000fd5b620002de8262000293565b810181811067ffffffffffffffff821117156200030057620002ff620002a4565b5b80604052505050565b60006200031562000210565b9050620003238282620002d3565b919050565b600067ffffffffffffffff821115620003465762000345620002a4565b5b620003518262000293565b9050602081019050919050565b60005b838110156200037e57808201518184015260208101905062000361565b60008484015250505050565b6000620003a16200039b8462000328565b62000309565b905082815260208101848484011115620003c057620003bf6200028e565b5b620003cd8482856200035e565b509392505050565b600082601f830112620003ed57620003ec62000289565b5b8151620003ff8482602086016200038a565b91505092915050565b6000819050919050565b6200041d8162000408565b81146200042957600080fd5b50565b6000815190506200043d8162000412565b92915050565b6000806000806080858703121562000460576200045f6200021a565b5b6000620004708782880162000272565b945050602085015167ffffffffffffffff8111156200049457620004936200021f565b5b620004a287828801620003d5565b935050604085015167ffffffffffffffff811115620004c657620004c56200021f565b5b620004d487828801620003d5565b9250506060620004e7878288016200042c565b91505092959194509250565b600081519050919050565b7f4e487b7100000000000000000000000000000000000000000000000000000000600052602260045260246000fd5b600060028204905060018216806200054657607f821691505b6020821081036200055c576200055b620004fe565b5b50919050565b60008190508160005260206000209050919050565b60006020601f8301049050919050565b600082821b905092915050565b600060088302620005c67fffffffffffffffffffffffffffffffffffffffffffffffffffffffffffffffff8262000587565b620005d2868362000587565b95508019841693508086168417925050509392505050565b6000819050919050565b6000620006156200060f620006098462000408565b620005ea565b62000408565b9050919050565b6000819050919050565b6200063183620005f4565b6200064962000640826200061c565b84845462000594565b825550505050565b600090565b6200066062000651565b6200066d81848462000626565b505050565b5b8181101562000695576200068960008262000656565b60018101905062000673565b5050565b601f821115620006e457620006ae8162000562565b620006b98462000577565b81016020851015620006c9578190505b620006e1620006d88562000577565b83018262000672565b50505b505050565b600082821c905092915050565b60006200070960001984600802620006e9565b1980831691505092915050565b6000620007248383620006f6565b9150826002028217905092915050565b6200073f82620004f3565b67ffffffffffffffff8111156200075b576200075a620002a4565b5b6200076782546200052d565b6200077482828562000699565b600060209050601f831160018114620007ac576000841562000797578287015190505b620007a3858262000716565b86555062000813565b601f198416620007bc8662000562565b60005b82811015620007e657848901518255600182019150602085019450602081019050620007bf565b8683101562000806578489015162000802601f891682620006f6565b8355505b6001600288020188555050505b505050505050565b620008268162000244565b82525050565b60006020820190506200084360008301846200081b565b92915050565b61315d80620008596000396000f3fe608060405234801561001057600080fd5b506004361061018e5760003560e01c806370a08231116100de578063b88d4fde11610097578063d5abeb0111610071578063d5abeb011461045b578063e985e9c514610479578063f103b433146104a9578063f2fde38b146104c55761018e565b8063b88d4fde146103f3578063c87b56dd1461040f578063d204c45e1461043f5761018e565b806370a0823114610357578063715018a6146103875780638456cb59146103915780638da5cb5b1461039b57806395d89b41146103b9578063a22cb465146103d75761018e565b80632f745c591161014b57806342966c681161012557806342966c68146102bd5780634f6ccce7146102d95780635c975abb146103095780636352211e146103275761018e565b80632f745c59146102675780633f4ba83a1461029757806342842e0e146102a15761018e565b806301ffc9a71461019357806306fdde03146101c3578063081812fc146101e1578063095ea7b31461021157806318160ddd1461022d57806323b872dd1461024b575b600080fd5b6101ad60048036038101906101a8919061246b565b6104e1565b6040516101ba91906124b3565b60405180910390f35b6101cb6104f3565b6040516101d8919061255e565b60405180910390f35b6101fb60048036038101906101f691906125b6565b610585565b6040516102089190612624565b60405180910390f35b61022b6004803603810190610226919061266b565b6105a1565b005b6102356105b7565b60405161024291906126ba565b60405180910390f35b610265600480360381019061026091906126d5565b6105c4565b005b610281600480360381019061027c919061266b565b6106c6565b60405161028e91906126ba565b60405180910390f35b61029f61076f565b005b6102bb60048036038101906102b691906126d5565b610781565b005b6102d760048036038101906102d291906125b6565b6107a1565b005b6102f360048036038101906102ee91906125b6565b6107b8565b60405161030091906126ba565b60405180910390f35b61031161082e565b60405161031e91906124b3565b60405180910390f35b610341600480360381019061033c91906125b6565b610845565b60405161034e9190612624565b60405180910390f35b610371600480360381019061036c9190612728565b610857565b60405161037e91906126ba565b60405180910390f35b61038f610911565b005b610399610925565b005b6103a3610937565b6040516103b09190612624565b60405180910390f35b6103c1610961565b6040516103ce919061255e565b60405180910390f35b6103f160048036038101906103ec9190612781565b6109f3565b005b61040d600480360381019061040891906128f6565b610a09565b005b610429600480360381019061042491906125b6565b610a26565b604051610436919061255e565b60405180910390f35b61045960048036038101906104549190612a1a565b610a38565b005b610463610a89565b60405161047091906126ba565b60405180910390f35b610493600480360381019061048e9190612a76565b610a8f565b6040516104a091906124b3565b60405180910390f35b6104c360048036038101906104be91906125b6565b610b23565b005b6104df60048036038101906104da9190612728565b610b7e565b005b60006104ec82610c04565b9050919050565b60606000805461050290612ae5565b80601f016020809104026020016040519081016040528092919081815260200182805461052e90612ae5565b801561057b5780601f106105505761010080835404028352916020019161057b565b820191906000526020600020905b81548152906001019060200180831161055e57829003601f168201915b5050505050905090565b600061059082610c65565b5061059a82610ced565b9050919050565b6105b382826105ae610d2a565b610d32565b5050565b6000600880549050905090565b600073ffffffffffffffffffffffffffffffffffffffff168273ffffffffffffffffffffffffffffffffffffffff16036106365760006040517f64a0ae9200000000000000000000000000000000000000000000000000000000815260040161062d9190612624565b60405180910390fd5b600061064a8383610645610d2a565b610d44565b90508373ffffffffffffffffffffffffffffffffffffffff168173ffffffffffffffffffffffffffffffffffffffff16146106c0578382826040517f64283d7b0000000000000000000000000000000000000000000000000000000081526004016106b793929190612b16565b60405180910390fd5b50505050565b60006106d183610857565b82106107165782826040517fa57d13dc00000000000000000000000000000000000000000000000000000000815260040161070d929190612b4d565b60405180910390fd5b600660008473ffffffffffffffffffffffffffffffffffffffff1673ffffffffffffffffffffffffffffffffffffffff168152602001908152602001600020600083815260200190815260200160002054905092915050565b610777610d5a565b61077f610de1565b565b61079c83838360405180602001604052806000815250610a09565b505050565b6107b46000826107af610d2a565b610d44565b5050565b60006107c26105b7565b8210610808576000826040517fa57d13dc0000000000000000000000000000000000000000000000000000000081526004016107ff929190612b4d565b60405180910390fd5b6008828154811061081c5761081b612b76565b5b90600052602060002001549050919050565b6000600b60009054906101000a900460ff16905090565b600061085082610c65565b9050919050565b60008073ffffffffffffffffffffffffffffffffffffffff168273ffffffffffffffffffffffffffffffffffffffff16036108ca5760006040517f89c62b640000000000000000000000000000000000000000000000000000000081526004016108c19190612624565b60405180910390fd5b600360008373ffffffffffffffffffffffffffffffffffffffff1673ffffffffffffffffffffffffffffffffffffffff168152602001908152602001600020549050919050565b610919610d5a565b6109236000610e44565b565b61092d610d5a565b610935610f0a565b565b6000600b60019054906101000a900473ffffffffffffffffffffffffffffffffffffffff16905090565b60606001805461097090612ae5565b80601f016020809104026020016040519081016040528092919081815260200182805461099c90612ae5565b80156109e95780601f106109be576101008083540402835291602001916109e9565b820191906000526020600020905b8154815290600101906020018083116109cc57829003601f168201915b5050505050905090565b610a056109fe610d2a565b8383610f6d565b5050565b610a148484846105c4565b610a20848484846110dc565b50505050565b6060610a3182611293565b9050919050565b610a40610d5a565b600d54610a4b6105b7565b10610a5557600080fd5b6000600c6000815480929190610a6a90612bd4565b919050559050610a7a83826113a6565b610a8481836113c4565b505050565b600d5481565b6000600560008473ffffffffffffffffffffffffffffffffffffffff1673ffffffffffffffffffffffffffffffffffffffff16815260200190815260200160002060008373ffffffffffffffffffffffffffffffffffffffff1673ffffffffffffffffffffffffffffffffffffffff16815260200190815260200160002060009054906101000a900460ff16905092915050565b610b2b610d5a565b610b336105b7565b8111610b74576040517f08c379a0000000000000000000000000000000000000000000000000000000008152600401610b6b90612cb4565b60405180910390fd5b80600d8190555050565b610b86610d5a565b600073ffffffffffffffffffffffffffffffffffffffff168173ffffffffffffffffffffffffffffffffffffffff1603610bf85760006040517f1e4fbdf7000000000000000000000000000000000000000000000000000000008152600401610bef9190612624565b60405180910390fd5b610c0181610e44565b50565b6000634906490660e01b7bffffffffffffffffffffffffffffffffffffffffffffffffffffffff1916827bffffffffffffffffffffffffffffffffffffffffffffffffffffffff19161480610c5e5750610c5d82611420565b5b9050919050565b600080610c718361149a565b9050600073ffffffffffffffffffffffffffffffffffffffff168173ffffffffffffffffffffffffffffffffffffffff1603610ce457826040517f7e273289000000000000000000000000000000000000000000000000000000008152600401610cdb91906126ba565b60405180910390fd5b80915050919050565b60006004600083815260200190815260200160002060009054906101000a900473ffffffffffffffffffffffffffffffffffffffff169050919050565b600033905090565b610d3f83838360016114d7565b505050565b6000610d5184848461169c565b90509392505050565b610d62610d2a565b73ffffffffffffffffffffffffffffffffffffffff16610d80610937565b73ffffffffffffffffffffffffffffffffffffffff1614610ddf57610da3610d2a565b6040517f118cdaa7000000000000000000000000000000000000000000000000000000008152600401610dd69190612624565b60405180910390fd5b565b610de96116ba565b6000600b60006101000a81548160ff0219169083151502179055507f5db9ee0a495bf2e6ff9c91a7834c1ba4fdd244a5e8aa4e537bd38aeae4b073aa610e2d610d2a565b604051610e3a9190612624565b60405180910390a1565b6000600b60019054906101000a900473ffffffffffffffffffffffffffffffffffffffff16905081600b60016101000a81548173ffffffffffffffffffffffffffffffffffffffff021916908373ffffffffffffffffffffffffffffffffffffffff1602179055508173ffffffffffffffffffffffffffffffffffffffff168173ffffffffffffffffffffffffffffffffffffffff167f8be0079c531659141344cd1fd0a4f28419497f9722a3daafe3b4186f6b6457e060405160405180910390a35050565b610f126116fa565b6001600b60006101000a81548160ff0219169083151502179055507f62e78cea01bee320cd4e420270b5ea74000d11b0c9f74754ebdbfc544b05a258610f56610d2a565b604051610f639190612624565b60405180910390a1565b600073ffffffffffffffffffffffffffffffffffffffff168273ffffffffffffffffffffffffffffffffffffffff1603610fde57816040517f5b08ba18000000000000000000000000000000000000000000000000000000008152600401610fd59190612624565b60405180910390fd5b80600560008573ffffffffffffffffffffffffffffffffffffffff1673ffffffffffffffffffffffffffffffffffffffff16815260200190815260200160002060008473ffffffffffffffffffffffffffffffffffffffff1673ffffffffffffffffffffffffffffffffffffffff16815260200190815260200160002060006101000a81548160ff0219169083151502179055508173ffffffffffffffffffffffffffffffffffffffff168373ffffffffffffffffffffffffffffffffffffffff167f17307eab39ab6107e8899845ad3d59bd9653f200f220920489ca2b5937696c31836040516110cf91906124b3565b60405180910390a3505050565b60008373ffffffffffffffffffffffffffffffffffffffff163b111561128d578273ffffffffffffffffffffffffffffffffffffffff1663150b7a02611120610d2a565b8685856040518563ffffffff1660e01b81526004016111429493929190612d29565b6020604051808303816000875af192505050801561117e57506040513d601f19601f8201168201806040525081019061117b9190612d8a565b60015b611202573d80600081146111ae576040519150601f19603f3d011682016040523d82523d6000602084013e6111b3565b606091505b5060008151036111fa57836040517f64a0ae920000000000000000000000000000000000000000000000000000000081526004016111f19190612624565b60405180910390fd5b805181602001fd5b63150b7a0260e01b7bffffffffffffffffffffffffffffffffffffffffffffffffffffffff1916817bffffffffffffffffffffffffffffffffffffffffffffffffffffffff19161461128b57836040517f64a0ae920000000000000000000000000000000000000000000000000000000081526004016112829190612624565b60405180910390fd5b505b50505050565b606061129e82610c65565b506000600a600084815260200190815260200160002080546112bf90612ae5565b80601f01602080910402602001604051908101604052809291908181526020018280546112eb90612ae5565b80156113385780601f1061130d57610100808354040283529160200191611338565b820191906000526020600020905b81548152906001019060200180831161131b57829003601f168201915b50505050509050600061134961173b565b9050600081510361135e5781925050506113a1565b60008251111561139357808260405160200161137b929190612df3565b604051602081830303815290604052925050506113a1565b61139c84611752565b925050505b919050565b6113c08282604051806020016040528060008152506117bb565b5050565b80600a600084815260200190815260200160002090816113e49190612fc3565b507ff8e1a15aba9398e019f0b49df1a4fde98ee17ae345cb5f6b5e2c27f5033e8ce78260405161141491906126ba565b60405180910390a15050565b60007f780e9d63000000000000000000000000000000000000000000000000000000007bffffffffffffffffffffffffffffffffffffffffffffffffffffffff1916827bffffffffffffffffffffffffffffffffffffffffffffffffffffffff191614806114935750611492826117d7565b5b9050919050565b60006002600083815260200190815260200160002060009054906101000a900473ffffffffffffffffffffffffffffffffffffffff169050919050565b80806115105750600073ffffffffffffffffffffffffffffffffffffffff168273ffffffffffffffffffffffffffffffffffffffff1614155b1561164457600061152084610c65565b9050600073ffffffffffffffffffffffffffffffffffffffff168373ffffffffffffffffffffffffffffffffffffffff161415801561158b57508273ffffffffffffffffffffffffffffffffffffffff168173ffffffffffffffffffffffffffffffffffffffff1614155b801561159e575061159c8184610a8f565b155b156115e057826040517fa9fbf51f0000000000000000000000000000000000000000000000000000000081526004016115d79190612624565b60405180910390fd5b811561164257838573ffffffffffffffffffffffffffffffffffffffff168273ffffffffffffffffffffffffffffffffffffffff167f8c5be1e5ebec7d5bd14f71427d1e84f3dd0314c0f7b2291e5b200ac8c7c3b92560405160405180910390a45b505b836004600085815260200190815260200160002060006101000a81548173ffffffffffffffffffffffffffffffffffffffff021916908373ffffffffffffffffffffffffffffffffffffffff16021790555050505050565b60006116a66116fa565b6116b18484846118b9565b90509392505050565b6116c261082e565b6116f8576040517f8dfc202b00000000000000000000000000000000000000000000000000000000815260040160405180910390fd5b565b61170261082e565b15611739576040517fd93c066500000000000000000000000000000000000000000000000000000000815260040160405180910390fd5b565b606060405180602001604052806000815250905090565b606061175d82610c65565b50600061176861173b565b9050600081511161178857604051806020016040528060008152506117b3565b80611792846119d6565b6040516020016117a3929190612df3565b6040516020818303038152906040525b915050919050565b6117c58383611aa4565b6117d260008484846110dc565b505050565b60007f80ac58cd000000000000000000000000000000000000000000000000000000007bffffffffffffffffffffffffffffffffffffffffffffffffffffffff1916827bffffffffffffffffffffffffffffffffffffffffffffffffffffffff191614806118a257507f5b5e139f000000000000000000000000000000000000000000000000000000007bffffffffffffffffffffffffffffffffffffffffffffffffffffffff1916827bffffffffffffffffffffffffffffffffffffffffffffffffffffffff1916145b806118b257506118b182611b9d565b5b9050919050565b6000806118c7858585611c07565b9050600073ffffffffffffffffffffffffffffffffffffffff168173ffffffffffffffffffffffffffffffffffffffff160361190b5761190684611e21565b61194a565b8473ffffffffffffffffffffffffffffffffffffffff168173ffffffffffffffffffffffffffffffffffffffff1614611949576119488185611e6a565b5b5b600073ffffffffffffffffffffffffffffffffffffffff168573ffffffffffffffffffffffffffffffffffffffff160361198c5761198784611fcb565b6119cb565b8473ffffffffffffffffffffffffffffffffffffffff168173ffffffffffffffffffffffffffffffffffffffff16146119ca576119c9858561209c565b5b5b809150509392505050565b6060600060016119e584612127565b01905060008167ffffffffffffffff811115611a0457611a036127cb565b5b6040519080825280601f01601f191660200182016040528015611a365781602001600182028036833780820191505090505b509050600082602001820190505b600115611a99578080600190039150507f3031323334353637383961626364656600000000000000000000000000000000600a86061a8153600a8581611a8d57611a8c613095565b5b04945060008503611a44575b819350505050919050565b600073ffffffffffffffffffffffffffffffffffffffff168273ffffffffffffffffffffffffffffffffffffffff1603611b165760006040517f64a0ae92000000000000000000000000000000000000000000000000000000008152600401611b0d9190612624565b60405180910390fd5b6000611b2483836000610d44565b9050600073ffffffffffffffffffffffffffffffffffffffff168173ffffffffffffffffffffffffffffffffffffffff1614611b985760006040517f73c6ac6e000000000000000000000000000000000000000000000000000000008152600401611b8f9190612624565b60405180910390fd5b505050565b60007f01ffc9a7000000000000000000000000000000000000000000000000000000007bffffffffffffffffffffffffffffffffffffffffffffffffffffffff1916827bffffffffffffffffffffffffffffffffffffffffffffffffffffffff1916149050919050565b600080611c138461149a565b9050600073ffffffffffffffffffffffffffffffffffffffff168373ffffffffffffffffffffffffffffffffffffffff1614611c5557611c5481848661227a565b5b600073ffffffffffffffffffffffffffffffffffffffff168173ffffffffffffffffffffffffffffffffffffffff1614611ce657611c976000856000806114d7565b6001600360008373ffffffffffffffffffffffffffffffffffffffff1673ffffffffffffffffffffffffffffffffffffffff168152602001908152602001600020600082825403925050819055505b600073ffffffffffffffffffffffffffffffffffffffff168573ffffffffffffffffffffffffffffffffffffffff1614611d69576001600360008773ffffffffffffffffffffffffffffffffffffffff1673ffffffffffffffffffffffffffffffffffffffff168152602001908152602001600020600082825401925050819055505b846002600086815260200190815260200160002060006101000a81548173ffffffffffffffffffffffffffffffffffffffff021916908373ffffffffffffffffffffffffffffffffffffffff160217905550838573ffffffffffffffffffffffffffffffffffffffff168273ffffffffffffffffffffffffffffffffffffffff167fddf252ad1be2c89b69c2b068fc378daa952ba7f163c4a11628f55a4df523b3ef60405160405180910390a4809150509392505050565b6008805490506009600083815260200190815260200160002081905550600881908060018154018082558091505060019003906000526020600020016000909190919091505550565b6000611e7583610857565b9050600060076000848152602001908152602001600020549050818114611f5a576000600660008673ffffffffffffffffffffffffffffffffffffffff1673ffffffffffffffffffffffffffffffffffffffff168152602001908152602001600020600084815260200190815260200160002054905080600660008773ffffffffffffffffffffffffffffffffffffffff1673ffffffffffffffffffffffffffffffffffffffff168152602001908152602001600020600084815260200190815260200160002081905550816007600083815260200190815260200160002081905550505b6007600084815260200190815260200160002060009055600660008573ffffffffffffffffffffffffffffffffffffffff1673ffffffffffffffffffffffffffffffffffffffff16815260200190815260200160002060008381526020019081526020016000206000905550505050565b60006001600880549050611fdf91906130c4565b905060006009600084815260200190815260200160002054905060006008838154811061200f5761200e612b76565b5b90600052602060002001549050806008838154811061203157612030612b76565b5b9060005260206000200181905550816009600083815260200190815260200160002081905550600960008581526020019081526020016000206000905560088054806120805761207f6130f8565b5b6001900381819060005260206000200160009055905550505050565b600060016120a984610857565b6120b391906130c4565b905081600660008573ffffffffffffffffffffffffffffffffffffffff1673ffffffffffffffffffffffffffffffffffffffff168152602001908152602001600020600083815260200190815260200160002081905550806007600084815260200190815260200160002081905550505050565b600080600090507a184f03e93ff9f4daa797ed6e38ed64bf6a1f0100000000000000008310612185577a184f03e93ff9f4daa797ed6e38ed64bf6a1f010000000000000000838161217b5761217a613095565b5b0492506040810190505b6d04ee2d6d415b85acef810000000083106121c2576d04ee2d6d415b85acef810000000083816121b8576121b7613095565b5b0492506020810190505b662386f26fc1000083106121f157662386f26fc1000083816121e7576121e6613095565b5b0492506010810190505b6305f5e100831061221a576305f5e10083816122105761220f613095565b5b0492506008810190505b612710831061223f57612710838161223557612234613095565b5b0492506004810190505b60648310612262576064838161225857612257613095565b5b0492506002810190505b600a8310612271576001810190505b80915050919050565b61228583838361233e565b61233957600073ffffffffffffffffffffffffffffffffffffffff168373ffffffffffffffffffffffffffffffffffffffff16036122fa57806040517f7e2732890000000000000000000000000000000000000000000000000000000081526004016122f191906126ba565b60405180910390fd5b81816040517f177e802f000000000000000000000000000000000000000000000000000000008152600401612330929190612b4d565b60405180910390fd5b505050565b60008073ffffffffffffffffffffffffffffffffffffffff168373ffffffffffffffffffffffffffffffffffffffff16141580156123f657508273ffffffffffffffffffffffffffffffffffffffff168473ffffffffffffffffffffffffffffffffffffffff1614806123b757506123b68484610a8f565b5b806123f557508273ffffffffffffffffffffffffffffffffffffffff166123dd83610ced565b73ffffffffffffffffffffffffffffffffffffffff16145b5b90509392505050565b6000604051905090565b600080fd5b600080fd5b60007fffffffff0000000000000000000000000000000000000000000000000000000082169050919050565b61244881612413565b811461245357600080fd5b50565b6000813590506124658161243f565b92915050565b60006020828403121561248157612480612409565b5b600061248f84828501612456565b91505092915050565b60008115159050919050565b6124ad81612498565b82525050565b60006020820190506124c860008301846124a4565b92915050565b600081519050919050565b600082825260208201905092915050565b60005b838110156125085780820151818401526020810190506124ed565b60008484015250505050565b6000601f19601f8301169050919050565b6000612530826124ce565b61253a81856124d9565b935061254a8185602086016124ea565b61255381612514565b840191505092915050565b600060208201905081810360008301526125788184612525565b905092915050565b6000819050919050565b61259381612580565b811461259e57600080fd5b50565b6000813590506125b08161258a565b92915050565b6000602082840312156125cc576125cb612409565b5b60006125da848285016125a1565b91505092915050565b600073ffffffffffffffffffffffffffffffffffffffff82169050919050565b600061260e826125e3565b9050919050565b61261e81612603565b82525050565b60006020820190506126396000830184612615565b92915050565b61264881612603565b811461265357600080fd5b50565b6000813590506126658161263f565b92915050565b6000806040838503121561268257612681612409565b5b600061269085828601612656565b92505060206126a1858286016125a1565b9150509250929050565b6126b481612580565b82525050565b60006020820190506126cf60008301846126ab565b92915050565b6000806000606084860312156126ee576126ed612409565b5b60006126fc86828701612656565b935050602061270d86828701612656565b925050604061271e868287016125a1565b9150509250925092565b60006020828403121561273e5761273d612409565b5b600061274c84828501612656565b91505092915050565b61275e81612498565b811461276957600080fd5b50565b60008135905061277b81612755565b92915050565b6000806040838503121561279857612797612409565b5b60006127a685828601612656565b92505060206127b78582860161276c565b9150509250929050565b600080fd5b600080fd5b7f4e487b7100000000000000000000000000000000000000000000000000000000600052604160045260246000fd5b61280382612514565b810181811067ffffffffffffffff82111715612822576128216127cb565b5b80604052505050565b60006128356123ff565b905061284182826127fa565b919050565b600067ffffffffffffffff821115612861576128606127cb565b5b61286a82612514565b9050602081019050919050565b82818337600083830152505050565b600061289961289484612846565b61282b565b9050828152602081018484840111156128b5576128b46127c6565b5b6128c0848285612877565b509392505050565b600082601f8301126128dd576128dc6127c1565b5b81356128ed848260208601612886565b91505092915050565b600080600080608085870312156129105761290f612409565b5b600061291e87828801612656565b945050602061292f87828801612656565b9350506040612940878288016125a1565b925050606085013567ffffffffffffffff8111156129615761296061240e565b5b61296d878288016128c8565b91505092959194509250565b600067ffffffffffffffff821115612994576129936127cb565b5b61299d82612514565b9050602081019050919050565b60006129bd6129b884612979565b61282b565b9050828152602081018484840111156129d9576129d86127c6565b5b6129e4848285612877565b509392505050565b600082601f830112612a0157612a006127c1565b5b8135612a118482602086016129aa565b91505092915050565b60008060408385031215612a3157612a30612409565b5b6000612a3f85828601612656565b925050602083013567ffffffffffffffff811115612a6057612a5f61240e565b5b612a6c858286016129ec565b9150509250929050565b60008060408385031215612a8d57612a8c612409565b5b6000612a9b85828601612656565b9250506020612aac85828601612656565b9150509250929050565b7f4e487b7100000000000000000000000000000000000000000000000000000000600052602260045260246000fd5b60006002820490506001821680612afd57607f821691505b602082108103612b1057612b0f612ab6565b5b50919050565b6000606082019050612b2b6000830186612615565b612b3860208301856126ab565b612b456040830184612615565b949350505050565b6000604082019050612b626000830185612615565b612b6f60208301846126ab565b9392505050565b7f4e487b7100000000000000000000000000000000000000000000000000000000600052603260045260246000fd5b7f4e487b7100000000000000000000000000000000000000000000000000000000600052601160045260246000fd5b6000612bdf82612580565b91507fffffffffffffffffffffffffffffffffffffffffffffffffffffffffffffffff8203612c1157612c10612ba5565b5b600182019050919050565b7f4e6577206d617820737570706c79206d7573742062652067726561746572207460008201527f68616e206f7220657175616c20746f2063757272656e7420746f74616c20737560208201527f70706c7900000000000000000000000000000000000000000000000000000000604082015250565b6000612c9e6044836124d9565b9150612ca982612c1c565b606082019050919050565b60006020820190508181036000830152612ccd81612c91565b9050919050565b600081519050919050565b600082825260208201905092915050565b6000612cfb82612cd4565b612d058185612cdf565b9350612d158185602086016124ea565b612d1e81612514565b840191505092915050565b6000608082019050612d3e6000830187612615565b612d4b6020830186612615565b612d5860408301856126ab565b8181036060830152612d6a8184612cf0565b905095945050505050565b600081519050612d848161243f565b92915050565b600060208284031215612da057612d9f612409565b5b6000612dae84828501612d75565b91505092915050565b600081905092915050565b6000612dcd826124ce565b612dd78185612db7565b9350612de78185602086016124ea565b80840191505092915050565b6000612dff8285612dc2565b9150612e0b8284612dc2565b91508190509392505050565b60008190508160005260206000209050919050565b60006020601f8301049050919050565b600082821b905092915050565b600060088302612e797fffffffffffffffffffffffffffffffffffffffffffffffffffffffffffffffff82612e3c565b612e838683612e3c565b95508019841693508086168417925050509392505050565b6000819050919050565b6000612ec0612ebb612eb684612580565b612e9b565b612580565b9050919050565b6000819050919050565b612eda83612ea5565b612eee612ee682612ec7565b848454612e49565b825550505050565b600090565b612f03612ef6565b612f0e818484612ed1565b505050565b5b81811015612f3257612f27600082612efb565b600181019050612f14565b5050565b601f821115612f7757612f4881612e17565b612f5184612e2c565b81016020851015612f60578190505b612f74612f6c85612e2c565b830182612f13565b50505b505050565b600082821c905092915050565b6000612f9a60001984600802612f7c565b1980831691505092915050565b6000612fb38383612f89565b9150826002028217905092915050565b612fcc826124ce565b67ffffffffffffffff811115612fe557612fe46127cb565b5b612fef8254612ae5565b612ffa828285612f36565b600060209050601f83116001811461302d576000841561301b578287015190505b6130258582612fa7565b86555061308d565b601f19841661303b86612e17565b60005b828110156130635784890151825560018201915060208501945060208101905061303e565b86831015613080578489015161307c601f891682612f89565b8355505b6001600288020188555050505b505050505050565b7f4e487b7100000000000000000000000000000000000000000000000000000000600052601260045260246000fd5b60006130cf82612580565b91506130da83612580565b92508282039050818111156130f2576130f1612ba5565b5b92915050565b7f4e487b7100000000000000000000000000000000000000000000000000000000600052603160045260246000fdfea2646970667358221220cd374a8852a8ea070f8af8de22da9177d7e43705abebbb2393af10f1cde4a82864736f6c63430008180033",
  "linkReferences": {},
  "deployedLinkReferences": {}
}